:100000000C942A000C943F000C943F000C943F0089
:100010000C943F000C943F000C943F000C943F0064
:100020000C943F000C943F000C943F000C943F0054
:100030000C943F000C943F000C943F000C943F0044
:100040000C943F000C943F000C943F000C943F0034
:100050000C943F0011241FBECFE5D8E0DEBFCDBF1A
:1000600010E0A0E6B0E0E2E7F3E002C005900D92F8
:10007000AC3FB107D9F70E940C010C94B7010C9466
:10008000000082BB85B38E7F85BB85B38D7F85BB2A
:1000900085B3846085BB89EF90E00197F1F700C0DC
:1000A000000085B38B7F85BB089582BB85B38160DB
:1000B00085BB85B38D7F85BB85B3846085BB89EFA8
:1000C00090E00197F1F700C0000085B38B7F85BBFE
:1000D00089EF90E00197F1F700C0000008950F93B9
:1000E0001F93CF93DF938C01C0E0D0E009C00E9442
:1000F000550087EA91E60197F1F700C000002196CC
:10010000F801EC0FFD1F80818111F1CFDF91CF91BC
:100110001F910F9108958FEF81BB84B3876084BBDB
:1001200087E893E10197F1F700C0000088E30E949F
:1001300041008EE00E94410081E00E94410083EF77
:1001400091E00197F1F700C00000089530E037C05A
:1001500080EF8ABB432F50E0BA016C5F7F4F81E094
:1001600090E002C0880F991F6A95E2F780958BBBDB
:1001700020E022C089B3622F70E090E0022E02C01E
:10018000959587950A94E2F780FD15C089B390E0B4
:10019000062E02C0959587950A94E2F780FFF6CF68
:1001A000660F771F660F771F605A7F4FFB01E40FC2
:1001B000F51F808108952F5F2430E0F23F5F3430D7
:1001C00038F2C4CFEF92FF920F931F93CF93DF9338
:1001D0007C01D62FC0E013C087010C0F111D0E94B7
:1001E000A600F80180830E945500FFE52AEE80E01A
:1001F000F15020408040E1F700C00000CF5FCD17F4
:1002000058F3F701ED0FF11D1082DF91CF911F918F
:100210000F91FF90EF900895CF93DF93CDB7DEB7A6
:10022000CD55D1090FB6F894DEBF0FBECDBF8FEF0D
:1002300087BB85E0E7EFF0E0DE01199601900D92B3
:100240008A95E1F780E5E0E7F0E0DE011E96019097
:100250000D928A95E1F70E948B0080E80E94410090
:1002600080EC90E00E946F0064E0CE0104960E9452
:10027000E200BE01675F7F4FCE0104960E94AE018F
:10028000892B09F04DC081E00E9441008AEC90E08A
:100290000E946F0062E0CE0101960E94E20000E041
:1002A00010E02FC084E1809FB001819F700D112468
:1002B0002EE030E02C0F3D1F620F731FCE01019620
:1002C0000E94AE01892BD9F481E00E94410081E0B7
:1002D00088BB8FEC90E00E946F0024E1209FC0015A
:1002E000219F900D11240A962EE030E02C0F3D1F27
:1002F000820F931F0E946F0081E090E007C00F5FA4
:100300001F4F0430110574F280E090E0892B79F4DE
:1003100080EC0E94410089ED90E00E946F0007C0D0
:1003200080EC0E94410087EE90E00E946F003FE366
:100330008DE093E0315080409040E1F700C0000034
:1003400018BA2FE33DE083E0215030408040E1F7D0
:1003500000C0000081E00E9441007FCFFB01DC0172
:100360008D91019080190110D9F3990B0895F8949B
:02037000FFCFBD
:100372002B2D78253D3336393032353843313437F9
:10038200303100000000000000005269746F00006C
:1003920000000000303200000000000000004A6F40
:1003A200686E000000000000303300000000000012
:1003B20000005261686166000000000030340000F5
:1003C20000000000000054696661000000000000A7
:1003D20050617373776F72643A002049443A002087
:1003E20057656C636F6D652000204944204E6F7421
:1003F20020466F756E64002057726F6E67205061E1
:0C0402007373776F726400313233340082
:00000001FF
